:020000040800F2
:10000000008000206D0E0008310C0008390C00083B
:10001000410C0008490C0008510C000800000000C9
:10002000000000000000000000000000590C000863
:10003000670C000800000000750C0008830C000825
:10004000BD0E0008BD0E0008BD0E0008BD0E000864
:10005000BD0E0008BD0E0008BD0E0008BD0E000854
:10006000BD0E0008BD0E0008BD0E0008BD0E000844
:10007000BD0E0008BD0E0008BD0E0008BD0E000834
:10008000BD0E0008BD0E0008BD0E0008BD0E000824
:10009000910C0008BD0E0008BD0E0008BD0E000842
:1000A000BD0E0008BD0E0008BD0E0008BD0E000804
:1000B000D90C00088D0D0008BD0E0008BD0E00080B
:1000C000BD0E0008BD0E0008BD0E0008BD0E0008E4
:1000D000BD0E0008BD0E0008BD0E0008BD0E0008D4
:1000E000BD0E0008BD0E0008BD0E0008BD0E0008C4
:1000F000BD0E0008BD0E0008BD0E0008BD0E0008B4
:10010000000000000000000000000000BD0E00081C
:10011000BD0E0008BD0E0008BD0E0008BD0E000893
:10012000BD0E0008BD0E0008BD0E0008BD0E000883
:10013000BD0E0008BD0E0008000000000000000019
:10014000BD0E0008BD0E0008BD0E00080000000036
:10015000000000000000000000000000000000009F
:100160000000000000000000BD0E0008BD0E0008E9
:10017000BD0E0008000000000000000000000000AC
:0801800000000000BD0E0008A4
:1001880010B5054C237833B9044B13B10448AFF3C9
:1001980000800123237010BD18000020000000001B
:1001A8008054000808B5034B1BB103490348AFF35B
:1001B800008008BD000000001C00002080540008DA
:1001C80080B582B000AF7860084611461A460346EB
:1001D800FB700B46BB7013467B707B681B785BB269
:1001E800DB43DBB2DB09DBB21A464FF440615C4803
:1001F80003F090F87B681B7803F01003DBB2002B48
:100208000CBF01230023DBB21A464FF400515448B7
:1002180003F080F87B681B7803F00403DBB2002B43
:100228000CBF01230023DBB21A4680214FF0904017
:1002380003F070F87B681B7803F04003DBB2002BF7
:100248000CBF01230023DBB21A464FF48051444807
:1002580003F060F87B681B7803F00803DBB2002B1F
:100268000CBF01230023DBB21A4604213C4803F0EB
:1002780051F87B681B7803F02003DBB2002B0FD00A
:10028800FA78BB789A420BD13B7C7B707A681378FA
:1002980043F0010313707A68137843F00203137074
:1002A8007B681B7803F00103DBB2002B13D07B784B
:1002B80001337B707B780A2B20D10121284803F079
:1002C80041F8FB78002B0CBF01230023DBB2FB7045
:1002D80000237B7012E07B681B7803F00103DBB21C
:1002E800002B0CBF01230023DBB21A4601211C4856
:1002F80003F010F80023FB7000237B707B681B78E9
:1003080003F00203DBB2002B13D03B7C01333B74B8
:100318003B7C0A2B20D10221114803F013F8BB784B
:10032800002B0CBF01230023DBB2BB7000233B74FE
:1003380012E07B681B7803F00203DBB2002B0CBFD2
:1003480001230023DBB21A460221054802F0E2FF2E
:100358000023BB7000233B7400BF0837BD4680BD37
:100368000004004884B080B588B000AF07F1280CBD
:100378008CE80F004FF4E063BB600023FB600023B0
:100388003B6100237B610123BB6100233B773B1D5D
:1003980007F108013A6D07F1280002F0C6F800BF1E
:1003A8002037BD46BDE8804004B0704784B080B5B2
:1003B80084B000AF07F1180C8CE80F000023FB6035
:1003C8000123FB7207F1180000F0E0FF4FF0FF3146
:1003D80007F1180001F026F90346002B04D107F1B4
:1003E800180001F021FA786707F1180001F0E4F825
:1003F80000237B6014E0BB6E1A78FB7A1340DBB2F3
:10040800002B07D07B689B00164A13441B68FA68C8
:100418001344FB60FB7A5B00FB727B6801337B60F3
:100428007B68072BE7DD104B1B781A46FB689B1A85
:100438007A6F9A420BD30C4B1B781A46FB6813440D
:100448007A6F9A4203D8BB6FFF221A7003E0BB6F22
:1004580000221A7000BF00BF1037BD46BDE88040BB
:1004680004B07047340000200000002080B582B03E
:1004780000AF78604FF480614FF0904002F032FF97
:10048800034603F00103D9B27A68137861F3C30312
:10049800137020213D4802F025FF034603F00103B5
:1004A800D9B27A68137861F3861313704FF48071A8
:1004B800364802F017FF034603F00103D9B27A6801
:1004C800137861F3820313704021304802F00AFF69
:1004D800034603F00103D9B27A68137861F3041371
:1004E80013704FF40071294802F0FCFE034603F034
:1004F8000103D9B27A68137861F30003137080217D
:10050800224802F0EFFE034603F00103D9B27A68ED
:10051800137861F3410313704FF400711B4802F024
:10052800E1FE0346002B0CD08021184802F0DAFEC9
:100538000346002B05D07A68137843F02003137024
:1005480004E07A6813786FF3451313704FF4004191
:100558000F4802F0C7FE0346002B07D14FF4807105
:100568000B4802F0BFFE0346002B05D07A681378CB
:1005780043F08003137005E07A6813786FF3C713AC
:10058800137000BF00BF0837BD4680BD0004004897
:100598000008004880B500AF00F08EFC00F026F897
:1005A80000F0D0F900F07EF800F0DAF800F02CF94D
:1005B80000F078F94FF4FA6000F0E4FC084801F024
:1005C80070FF084804F0F0FA074804F0EDFA5A20E2
:1005D80000F0D8FC0221024802F099F900BFFDE7BB
:1005E800A4000020CC0000201801002080B59EB097
:1005F80000AF07F1500328220021184604F010FF2D
:1006080007F13C0300221A605A609A60DA601A61A6
:100618003B463C220021184604F002FF01233B65BB
:100628004FF480337B650123BB6501233B660223BE
:10063800FB664FF480333B674FF4E0137B6707F1A9
:100648005003184602F098FE0346002B01D000F034
:10065800F5F90F23FB6302233B6400237B644FF40B
:100668008063BB640023FB6407F13C030221184646
:1006780003F0C0FE0346002B01D000F0DFF94FF471
:1006880080733B604FF40053BB623B46184604F04E
:1006980083F80346002B01D000F0D0F900BF78376B
:1006A800BD4680BD80B586B000AF3B4600221A60CB
:1006B8005A609A60DA601A615A61274B274A1A60B1
:1006C800254B00225A60244B00229A60224B0022BC
:1006D8001A61214B00225A761F4B002283F82020F2
:1006E8001D4B0022DA621C4B01229A621A4B00222F
:1006F800DA60194B0122DA61174B002283F83020A7
:10070800154B04225A61144B00221A76124B002210
:100718005A63114800F05AFC0346002B01D000F040
:100728008DF904233B6001237B600023FB600023D9
:10073800BB6000233B6100237B613B4619460648AA
:1007480001F080F80346002B01D000F077F900BFD4
:100758001837BD4680BD00BF54000020000500507A
:1007680080B58AB000AF264B264A1A60244B122265
:100778005A60234B00229A60214B0022DA60204BFA
:100788004FF480221A611E4B4FF480125A611C4BA1
:1007980000221A761A4B00225A76194B00229A76B2
:1007A800174B0122DA76164B00221A77144B0022D7
:1007B8005A77134801F0B0FC0346002B01D000F033
:1007C8003DF901233B620A237B6100233B614EF222
:1007D80020033B6000237B604EF22003BB600023B4
:1007E800FB600023BB610123FB6100237B623B4666
:1007F8001946034801F08BFD00BF2837BD4680BD70
:10080800A40000200064004080B588B000AF07F164
:10081800100300221A605A609A60DA603B1D0022B9
:100828001A605A609A601E4B4FF080421A601C4B47
:1008380041F61F425A601A4B00229A60184B40F248
:100848003622DA60164B00221A61154B80229A6113
:10085800134804F051F90346002B01D000F0EEF8DC
:100868004FF480533B6107F1100319460C4804F01C
:1008780007FB0346002B01D000F0E0F800237B6063
:100888000023FB603B1D1946054804F02BFD034679
:10089800002B01D000F0D2F800BF2037BD4680BD44
:1008A800CC00002080B588B000AF07F1100300220B
:1008B8001A605A609A60DA603B1D00221A605A601A
:1008C8009A601E4B1E4A1A601C4B41F61F425A6022
:1008D8001A4B00229A60194B40F2FE22DA60174B3D
:1008E80000221A61154B00229A61144804F004F999
:1008F8000346002B01D000F0A1F84FF480533B6170
:1009080007F1100319460D4804F0BAFA0346002B04
:1009180001D000F093F800237B600023FB603B1DAF
:100928001946064804F0DEFC0346002B01D000F00F
:1009380085F800BF2037BD4680BD00BF18010020E4
:100948000004004080B588B000AF07F10C03002216
:100958001A605A609A60DA601A61364B5B69354AE8
:1009680043F480035361334B5B6903F48003BB603A
:10097800BB68304B5B692F4A43F4003353612D4BFE
:100988005B6903F400337B607B682A4B5B69294A07
:1009980043F480235361274B5B6903F480233B6056
:1009A8003B68002280214FF0904002F0B3FC002207
:1009B80043F60741204802F0ADFC8023FB60012389
:1009C8003B6100237B610023BB6107F10C031946DF
:1009D8004FF0904002F00CFB43F60743FB60012305
:1009E8003B6100237B610023BB6107F10C031946BF
:1009F800114802F0FDFA48F2F033FB6000233B6136
:100A080000237B6107F10C0319460B4802F0F0FA4A
:100A18004FF4E063FB6000233B6100237B6107F137
:100A28000C0319464FF0904002F0E2FA00BF20375D
:100A3800BD4680BD001002400004004880B400AFED
:100A480072B600BF00BFFDE780B483B000AF0F4BA4
:100A58009B690E4A43F0010393610C4B9B6903F0B9
:100A680001037B607B68094BDB69084A43F08053CC
:100A7800D361064BDB6903F080533B603B6800BFE2
:100A88000C37BD465DF8047B704700BF001002407C
:100A980080B58AB000AF786007F1140300221A60AD
:100AA8005A609A60DA601A617B681B68154A93423B
:100AB80024D1154B5B69144A43F000535361124B20
:100AC8005B6903F000533B613B690F4B5B690E4A5E
:100AD80043F4802353610C4B5B6903F48023FB6070
:100AE800FB684FF480437B610323BB610023FB61F8
:100AF80007F114031946054802F07AFA00BF2837AF
:100B0800BD4680BD000500500010024000040048AA
:100B180080B58AB000AF786007F1140300221A602C
:100B28005A609A60DA601A617B681B681C4A9342B3
:100B380031D11C4BDB691B4A43F00073D361194B5D
:100B4800DB6903F000733B613B69164B5B69154A2F
:100B580043F400335361134B5B6903F40033FB60C8
:100B6800FB684FF4C0537B610223BB610023FB6128
:100B780003233B6209237B6207F1140319464FF0F4
:100B8800904002F035FA00220021142002F0F9F911
:100B9800142002F012FA00BF2837BD4680BD00BFFE
:100BA800006400400010024080B584B000AF786057
:100BB8007B681B68B3F1804F14D1194BDB69184A65
:100BC80043F00103D361164BDB6903F00103FB60BB
:100BD800FB68002200211C2002F0D3F91C2002F03F
:100BE800ECF918E07B681B680E4A934213D10C4B52
:100BF800DB690B4A43F00203D361094BDB6903F05D
:100C08000203BB60BB68002200211D2002F0B9F975
:100C18001D2002F0D2F900BF1037BD4680BD00BFCD
:100C2800001002400004004080B400AF00BFFDE7A0
:100C380080B400AF00BFFDE780B400AF00BFFDE7A0
:100C480080B400AF00BFFDE780B400AF00BFFDE790
:100C580080B400AF00BFBD465DF8047B704780B428
:100C680000AF00BFBD465DF8047B704780B400AF9D
:100C780000BFBD465DF8047B704780B500AF00F04B
:100C880061F900BF80BD000080B588B000AF0C4896
:100C980001F063FE3B463A1D0021094801F015FDAD
:100CA800084B1B78002B06D1074B1B683A781A7043
:100CB800064B00221A7000BF2037BD4680BD00BF1A
:100CC800A40000206B010020040000207001002017
:100CD80090B583B002AF224803F0D0FF4FF4007103
:100CE8004FF0904002F0FEFA03461A461D4B1A7068
:100CF8001D4B1B78642B0AD81A4B1B78002B06D186
:100D0800194B1B780133DAB2174B1A7024E0164BD3
:100D18001B78642B08D9134B1B78002B04D1134B79
:100D28001B6800221A7017E00E4B1B78012B13D199
:100D38000F4B1B681846FFF799FB0D4B18680D4BB6
:100D480019780D4B1A780D4B1C780D4B1B780093B6
:100D58002346FFF735FAFFE700BF0437BD4690BDCD
:100D6800CC0000206B01002070010020040000204E
:100D780008000020690100206A0100206C010020A1
:100D88006D010020F0B597B016AF234803F076FF49
:100D9800224B1868224B1978224B1A78224B1C7860
:100DA800224B1B7800932346FFF70AFA1B4B1B685C
:100DB8001B4A12781B4909781D48008804461D4EB5
:100DC8001D48149013941291119210936D4606F1D8
:100DD80010040FCC0FC50FCC0FC50FCC0FC594E86E
:100DE8000F0085E80F0096E80F00FFF7DFFA134EB3
:100DF800114B06936D4606F110040FCC0FC594E80D
:100E0800030085E8030096E80F00FFF7ABFA00BF80
:100E18000437BD46F0BD00BF1801002004000020C3
:100E2800690100206A0100206C0100206D0100208A
:100E38006E0100205400002074010020A40000204E
:100E480080B400AF064BD3F88830054A43F47003EA
:100E5800C2F8883000BFBD465DF8047B704700BF0C
:100E680000ED00E0DFF834D0FFF7EAFF0C480D4949
:100E78000D4A002302E0D458C4500433C4188C42ED
:100E8800F9D30A4A0A4C002301E013600432A24253
:100E9800FBD304F0CDFAFFF77DFBFEE700800020CE
:100EA8000000002018000020D0540008180000207E
:100EB8007C010020FEE7000080B500AF084B1B68EE
:100EC800074A43F010031360032002F04FF80F2085
:100ED80000F008F8FFF7B8FD0023184680BD00BFF2
:100EE8000020024080B582B000AF7860124B1A68CB
:100EF800124B1B7819464FF47A73B3FBF1F3B2FB2C
:100F0800F3F3184602F067F80346002B01D00123DB
:100F18000EE07B680F2B0AD8002279684FF0FF306B
:100F280002F02FF8064A7B681360002300E00123D3
:100F380018460837BD4680BD0C000020140000206C
:100F48001000002080B400AF064B1B781A46064BF1
:100F58001B681344044A136000BFBD465DF8047B58
:100F6800704700BF140000207801002080B400AF53
:100F7800034B1B681846BD465DF8047B704700BFED
:100F88007801002080B584B000AF7860FFF7EEFFED
:100F9800B8607B68FB60FB68B3F1FF3F05D00A4B84
:100FA8001B781A46FB681344FB6000BFFFF7DEFF9F
:100FB8000246BB68D31AFA689A42F7D800BF00BF46
:100FC8001037BD4680BD00BF1400002080B59AB020
:100FD80000AF7860002387F8673000233B66002362
:100FE800BB607B68002B01D10123C9E17B681B69C9
:100FF800002B7B681B6C03F01003002B76D17B68F9
:101008001B6C002B52D17B6800225A647B6800223B
:10101800DA647B6800229A647B68002283F83C20AB
:101028007868FFF735FD7B681B689B6803F0805381
:10103800002B3BD1786800F053FF034687F86730F0
:101048007B681B6C03F01003002B2FD197F86730D7
:10105800002B2BD17B681B6C23F4885323F00203ED
:1010680043F002027B681A647B681B689A687B6895
:101078001B6822F040529A607B681B689A687B68FC
:101088001B6842F080529A60864B1B68864AA2FB16
:1010980003239A0C13469B0013445B00BB6002E0D9
:1010A800BB68013BBB60BB68002BF9D17B681B6840
:1010B8009B6803F08053002B07D07B681B689B68F4
:1010C80003F00053B3F1005F10D17B681B6C23F071
:1010D800120343F010027B681A647B685B6C43F070
:1010E80001027B685A64012387F867307B681B6CB0
:1010F80003F01003002B40F0368197F86730002B7F
:1011080040F031817B681B689B6803F00403002B67
:1011180040F029817B681B6C23F4817343F0020241
:101128007B681A647B681B68B3F1A04F04D07B68A6
:101138001B685E4A934201D15D4B00E05D4BFB6545
:101148007B681B68B3F1A04F02D1584BFB601AE0D3
:101158007B681B68554A934203D14FF0A043FB605C
:1011680011E07B681B68544A934202D1534BFB60E1
:1011780009E07B681B68514A934202D14E4BFB60E1
:1011880001E00023FB607B681B689B6803F0030396
:10119800012B08D17B681B681B6803F00103012B36
:1011A80001D1012300E00023002B1CD1FB68002B98
:1011B80010D0FB689B6803F00303012B07D1FB6881
:1011C8001B6803F00103012B01D1012300E0002378
:1011D800002B08D1FB6D9B6823F440327B685B6869
:1011E8001A43FB6D9A607B685B7E5B037A68526B7F
:1011F800012A02D04FF4805200E000221A437B6893
:10120800DB681A437B689B6813433A6E13433B665B
:101218007B6893F82030012B1BD17B685B7E002B09
:1012280009D17B685B6A013B5A043B6E134343F464
:1012380080333B660DE07B681B6C23F0220343F090
:1012480020027B681A647B685B6C43F001027B6850
:101258005A647B689B6A012B3AD07B681B68164AE4
:10126800934204D07B681B68144A934228D17B6858
:101278009B6AB3F5307F12D07B689B6AB3F5807F99
:101288000AD07B689B6AB3F5E07F02D07B689B6AD3
:1012980018E04FF4807315E04FF4307312E04FF408
:1012A800E0730FE00C00002083DE1B4300010050B8
:1012B80000030050000700500004005000050050D3
:1012C8007B689B6A7A68D26A13433A6E13433B661B
:1012D8007B681B689B6803F00C03002B14D17B68A8
:1012E8001B68DB687A68126823F4804323F00203E2
:1012F800D3607B681B7E9A037B6893F830305B0071
:1013080013433A6E13433B667B681B68DA681E4BCF
:1013180013407A681268396E0B43D3607B681B6987
:10132800012B0CD17B681B681B6B23F00F017B68BA
:10133800DB695A1E7B681B680A431A6307E07B68EF
:101348001B681A6B7B681B6822F00F021A637B68A4
:1013580000225A647B681B6C23F0030343F00102EC
:101368007B681A640AE07B681B6C23F0120343F065
:1013780010027B681A64012387F8673097F8673092
:1013880018466837BD4680BD07C0F0FF80B584B0F9
:1013980000AF78600023FB737B681B689B6803F0D1
:1013A8000403002B40F0F9807B6893F83C30012B54
:1013B80001D10223F4E07B68012283F83C2078689D
:1013C80000F02AFD0346FB73FB7B002B40F0E08016
:1013D8007B681B6C23F4706323F0010343F4807271
:1013E8007B681A647B681B68B3F1A04F04D07B68E4
:1013F8001B686D4A934206D16C4B9B6803F01F0330
:10140800002B10D005E06A4B9B6803F01F03002BEC
:1014180009D07B681B68B3F1A04F04D07B681B68B8
:10142800644A934215D17B681B6C23F480127B6855
:101438001A647B681B68DB6803F00073002B36D0E6
:101448007B681B6C23F4405343F480527B681A6416
:101458002DE07B681B6C43F480127B681A647B6800
:101468001B68B3F1A04F04D07B681B684E4A9342B7
:101478000AD14FF0A043DB6803F00073002B14BFC0
:1014880001230023DBB208E04A4BDB6803F000735A
:10149800002B14BF01230023DBB2002B07D07B688D
:1014A8001B6C23F4405343F480527B681A647B68B6
:1014B8001B6C03F48053B3F5805F06D17B685B6CCB
:1014C80023F006027B685A6402E07B6800225A64B3
:1014D8007B68002283F83C207B681B681C221A600A
:1014E8007B681B68B3F1A04F04D07B681B682E4A49
:1014F800934206D12D4B9B6803F01F03002B3ED06F
:1015080005E02B4B9B6803F01F03002B37D07B684B
:101518001B68B3F1A04F04D07B681B68224A934232
:1015280006D1224B9B6803F01F03052B27D005E04B
:101538001F4B9B6803F01F03052B20D07B681B689B
:10154800B3F1A04F04D07B681B68174A934206D1B9
:10155800164B9B6803F01F03092B10D005E0144BB2
:101568009B6803F01F03092B09D07B681B68B3F144
:10157800A04F04D07B681B680E4A93420FD17B684A
:101588001B689A687B681B6842F004029A6006E050
:101598007B68002283F83C2001E00223FB73FB7B7D
:1015A80018461037BD4680BD0001005000030050AA
:1015B800000700500004005080B584B000AF786088
:1015C8000023FB737B6893F83C30012B01D1022385
:1015D80023E07B68012283F83C206C21786800F0C6
:1015E800E5FC0346FB73FB7B002B11D1786800F008
:1015F80077FC0346FB73FB7B002B09D17B681B6CD4
:1016080023F4885323F0010343F001027B681A6432
:101618007B68002283F83C20FB7B18461037BD46C8
:1016280080BD000080B586B000AF786039600023C7
:101638003B617B685B69082B02D108237B613AE038
:101648007B681B68B3F1A04F04D07B681B68724AA3
:10165800934201D1714B00E0714BFB60FB689B68C2
:1016680003F01F03002B12D17B681B68DB6803F0B3
:101678000103012B1DD17B681B6C43F020027B68A2
:101688001A647B68002283F83C200123BFE0FB68D2
:101698009B6803F44043002B0BD07B681B6C43F022
:1016A80020027B681A647B68002283F83C200123AF
:1016B800ADE00C237B617B681B68B3F1A04F04D0BD
:1016C8007B681B68544A934206D1544B9B6803F0CD
:1016D8001F03002B10D005E0514B9B6803F01F033C
:1016E800002B09D07B681B68B3F1A04F04D07B683E
:1016F8001B684C4A934204D17B681B68DB683B61DA
:101708000FE07B681B68B3F1A04F04D07B681B68AF
:10171800414A934202D14FF0A04300E0414BDB68BD
:101728003B61FFF723FCB86021E03B68B3F1FF3F62
:101738001DD03B68002B07D0FFF718FC0246BB689A
:10174800D31A3A689A4212D27B681B681A687B6976
:101758001340002B0BD17B681B6C43F004027B68A1
:101768001A647B68002283F83C2003234FE07B68DF
:101778001B681A687B691340002BD6D07B681B6CEA
:1017880043F400727B681A647B681B68DB6803F4A7
:101798004063002B31D13B6903F40053002B2CD15B
:1017A8007B681B681B6803F00803082B25D17B683E
:1017B8001B689B6803F00403002B12D17B681B6C29
:1017C80023F480727B681A647B681B6C03F4805373
:1017D800002B12D17B681B6C43F001027B681A64F2
:1017E8000BE07B681B6C43F020027B681A647B6803
:1017F8005B6C43F001027B685A643B6903F48043E5
:10180800002B03D17B681B687A691A60002318468D
:101818001837BD4680BD00BF0001005000030050CE
:10182800000700500004005080B483B000AF786017
:101838007B681B681B6C18460C37BD465DF8047B3B
:101848007047000080B49BB000AF78603960002317
:1018580087F867300023BB607B6893F83C30012B26
:1018680001D10223C8E27B68012283F83C207B680F
:101878001B689B6803F00403002B40F0AC823B68B4
:101888005B68042B1CD87B681B68196B3B685A681B
:1018980013465B0013445B001A461F239340DB4347
:1018A80019403B6818683B685A6813465B00134444
:1018B8005B0000FA03F27B681B680A431A6363E063
:1018C8003B685B68092B1ED87B681B68596B3B68B3
:1018D8005A6813465B0013445B001E3B1F2202FA42
:1018E80003F3DB4319403B6818683B685A681346A2
:1018F8005B0013445B001E3B00FA03F27B681B6825
:101908000A435A6340E03B685B680E2B1ED87B682D
:101918001B68996B3B685A6813465B0013445B006D
:101928003C3B1F2202FA03F3DB4319403B6818686B
:101938003B685A6813465B0013445B003C3B00FA63
:1019480003F27B681B680A439A631DE07B681B6887
:10195800D96B3B685A6813465B0013445B005A3BDB
:101968001F2202FA03F3DB4319403B6818683B68FF
:101978005A6813465B0013445B005A3B00FA03F2B3
:101988007B681B680A43DA637B681B689B6803F003
:101998000C03002B40F0E5803B681B68092B1CD921
:1019A8007B681B6899693B681A6813465B00134497
:1019B8001E3B072202FA03F3DB4319403B68986891
:1019C8003B681A6813465B0013441E3B00FA03F297
:1019D8007B681B680A439A6119E07B681B68596930
:1019E8003B681A6813465B001344072202FA03F3A4
:1019F800DB4319403B6898683B681A6813465B00EC
:101A0800134400FA03F27B681B680A435A613B6877
:101A18005A697B681B68DB68DB0803F003035B001B
:101A280002FA03F33B663B681B69013B032B4FD863
:101A380001A252F823F000BF511A0008731A0008D7
:101A4800951A0008B71A00087B681B681A6E994B2C
:101A580013403A68126891063A6E0A431A437B6843
:101A68001B6842F000421A667BE07B681B685A6E6E
:101A7800904B13403A68126891063A6E0A431A432B
:101A88007B681B6842F000425A666AE07B681B6804
:101A98009A6E884B13403A68126891063A6E0A4368
:101AA8001A437B681B6842F000429A6659E07B68DB
:101AB8001B68DA6E7F4B13403A68126891063A6EDB
:101AC8000A431A437B681B6842F00042DA6648E022
:101AD8007B681B681B6E03F0F8423B681B689B061B
:101AE8009A4207D17B681B681A6E7B681B6822F0D4
:101AF80000421A667B681B685B6E03F0F8423B681D
:101B08001B689B069A4207D17B681B685A6E7B68E4
:101B18001B6822F000425A667B681B689B6E03F0C4
:101B2800F8423B681B689B069A4207D17B681B6892
:101B38009A6E7B681B6822F000429A667B681B6875
:101B4800DB6E03F0F8423B681B689B069A4207D19C
:101B58007B681B68DA6E7B681B6822F00042DA66D5
:101B680000BF7B681B689B6803F00303012B08D147
:101B78007B681B681B6803F00103012B01D101235B
:101B880000E00023002B40F031813B68DB68012B2B
:101B98000FD07B681B68D3F8B0103B681B68012224
:101BA80002FA03F3DA437B681B680A40C3F8B020E3
:101BB80049E07B681B68D3F8B0103B681B680122BA
:101BC8009A407B681B680A43C3F8B0203B681B68CF
:101BD800092B1CD97B681B6899693B681A681346EE
:101BE8005B0013441B3B072202FA03F3DB43194053
:101BF8003B6898683B681A6813465B0013441B3BB4
:101C080000FA03F27B681B680A439A611BE07B6851
:101C18001B6859693B681B685A1C13465B001344D0
:101C2800072202FA03F3DB4319403B6898683B68D4
:101C38001B685A1C13465B00134400FA03F27B68C6
:101C48001B680A435A617B681B68B3F1A04F04D034
:101C58007B681B68184A934201D1184B00E0184B67
:101C6800FB653B681B68102B05D1FB6D9B6803F473
:101C78000003002B15D03B681B68112B05D1FB6DA9
:101C88009B6803F08073002B0BD03B681B68122BFA
:101C980040F0AC80FB6D9B6803F48003002B40F0A0
:101CA800A5807B681B68B3F1A04F0BD1024BFB608A
:101CB80023E000BF00F0FF83000100500003005044
:101CC800000700507B681B684E4A934203D14FF0CF
:101CD800A043FB6011E07B681B684B4A934202D12A
:101CE8004A4BFB6009E07B681B68484A934202D173
:101CF800454BFB6001E00023FB607B681B689B6829
:101D080003F00303012B08D17B681B681B6803F0F1
:101D18000103012B01D1012300E00023002B50D146
:101D2800FB68002B10D0FB689B6803F00303012BB2
:101D380007D1FB681B6803F00103012B01D10123C4
:101D480000E00023002B3CD13B681B68102B1DD101
:101D58007B681B68B3F1A04F18D1FB6D9B6843F4F7
:101D68000002FB6D9A602A4B1B682A4AA2FB0323D8
:101D78009A0C13469B0013445B00BB6002E0BB68EF
:101D8800013BBB60BB68002BF9D12EE03B681B68A8
:101D9800112B0BD17B681B68B3F1A04F06D1FB6DEB
:101DA8009B6843F08072FB6D9A601EE03B681B687D
:101DB800122B1AD1FB6D9B6843F48002FB6D9A606D
:101DC80013E07B681B6C43F020027B681A640123D4
:101DD80087F867300AE07B681B6C43F020027B6859
:101DE8001A64012387F8673000E000BF7B6800228F
:101DF80083F83C2097F8673018466C37BD465DF885
:101E0800047B70470001005000040050000500509A
:101E18000C00002083DE1B4380B584B000AF7860DF
:101E28000023FB607B681B689B6803F00303012B9E
:101E380008D17B681B681B6803F00103012B01D1E3
:101E4800012300E00023002B43D17B681B689A68BC
:101E5800224B1340002B0DD07B681B6C43F0100203
:101E68007B681A647B685B6C43F001027B685A6488
:101E780001232FE07B681B689A687B681B6842F027
:101E880001029A60FFF772F8F8601BE0FFF76EF83E
:101E98000246FB68D31A022B14D97B681B681B689F
:101EA80003F00103012B0DD07B681B6C43F010027B
:101EB8007B681A647B685B6C43F001027B685A6438
:101EC800012307E07B681B681B6803F00103012BF3
:101ED800DCD1002318461037BD4680BD3F00008086
:101EE80080B584B000AF78600023FB607B681B6816
:101EF8009B6803F00303012B08D17B681B681B68F0
:101F080003F00103012B01D1012300E00023002B82
:101F180047D07B681B689B6803F00D03012B0FD12A
:101F28007B681B689A687B681B6842F002029A60AB
:101F38007B681B6803221A60FFF718F8F86029E02D
:101F48007B681B6C43F010027B681A647B685B6CCF
:101F580043F001027B685A64012323E0FFF706F887
:101F68000246FB68D31A022B14D97B681B689B684E
:101F780003F00103012B0DD17B681B6C43F01002A9
:101F88007B681A647B685B6C43F001027B685A6467
:101F9800012307E07B681B689B6803F00103012BA2
:101FA800DCD0002318461037BD4680BD80B586B00A
:101FB80000AF7860396000237B610023FB60002359
:101FC8003B617B681B689B6803F00C03002B00F0E7
:101FD8009B807B681B68DB6803F00073B3F1007FAC
:101FE8002AD17B685B7E012B26D17B681B7E012B67
:101FF80022D10C233B6014E03B69464A93420DD939
:102008007B681B6C43F010027B681A647B685B6C0E
:1020180043F001027B685A64012376E03B6901338F
:102028003B617B681B681B6803F04003402BE3D1CE
:102038007B681B6840221A603B68602B15D07B6860
:102048001B689B6803F00403042B0ED17B681B6894
:102058009B6803F00203002B07D17B681B689A6812
:102068007B681B6842F010029A603B680C2B15D005
:102078007B681B689B6803F00803082B0ED17B68FC
:102088001B689B6803F00203002B07D17B681B6861
:102098009A687B681B6842F020029A603B68602B54
:1020A80005D03B686C2B05D10C237B6105E0082328
:1020B8007B6102E004237B6100BFFEF757FFF860F5
:1020C8001BE0FEF753FF0246FB68D31A0B2B14D90B
:1020D8007B681B689A687B691340002B0DD07B686E
:1020E8001B6C43F010027B681A647B685B6C43F0DE
:1020F80001027B685A64012307E07B681B689A68C1
:102108007B691340002BDCD1002318461837BD46E5
:1021180080BD00BFFF93090080B584B000AF786030
:102128007B68002B01D10123EDE07B6893F8203018
:10213800DBB2002B02D17868FEF7EAFC7B681B68EB
:102148001A687B681B6842F001021A60FEF70EFFEE
:10215800F86012E0FEF70AFF0246FB68D31A0A2B62
:102168000BD97B685B6A43F400327B685A627B68F0
:10217800052283F820200123C5E07B681B685B6883
:1021880003F00103002BE5D07B681B681A687B68A5
:102198001B6822F002021A60FEF7E8FEF86012E0FF
:1021A800FEF7E4FE0246FB68D31A0A2B0BD97B68BC
:1021B8005B6A43F400327B685A627B68052283F8C5
:1021C800202001239FE07B681B685B6803F0020303
:1021D800002BE5D17B681B7E012B08D17B681B682F
:1021E8001A687B681B6842F080021A6007E07B6807
:1021F8001B681A687B681B6822F080021A607B687B
:102208005B7E012B08D17B681B681A687B681B689A
:1022180042F040021A6007E07B681B681A687B6816
:102228001B6822F040021A607B689B7E012B08D154
:102238007B681B681A687B681B6842F020021A607A
:1022480007E07B681B681A687B681B6822F020021D
:102258001A607B68DB7E012B08D17B681B681A68D3
:102268007B681B6822F010021A6007E07B681B6815
:102278001A687B681B6842F010021A607B681B7F33
:10228800012B08D17B681B681A687B681B6842F0C1
:1022980008021A6007E07B681B681A687B681B687D
:1022A80022F008021A607B685B7F012B08D17B68EB
:1022B8001B681A687B681B6842F004021A6007E012
:1022C8007B681B681A687B681B6822F004021A6026
:1022D8007B689A687B68DB681A437B681B691A43CA
:1022E8007B685B6942EA03017B685B685A1E7B680E
:1022F8001B680A43DA617B6800225A627B68012204
:1023080083F82020002318461037BD4680BD80B4CE
:1023180087B000AF786039607B681B687B617B6839
:1023280093F82030FB74FB7C012B03D0FB7C022B41
:1023380040F0AA807B69D3F8003243F001027B6940
:10234800C3F800223B685B6903F01F03012202FA0D
:1023580003F3FB607B69D3F81C22FB68DB431A405C
:102368007B69C3F81C223B68DB69002B23D17B699E
:10237800D3F80C22FB68DB431A407B69C3F80C22B4
:102388003B68DB6819043B685B689BB23A68526932
:1023980019437B69483243F832103B689B6819043B
:1023A8003B681B689AB23B685B690A4379694833A2
:1023B800DB000B445A603B68DB69012B22D17B6947
:1023C800D3F80C22FB681A437B69C3F80C223B68DC
:1023D8001B6819043B685B689BB23A6852691943E9
:1023E8007B69483243F832103B689B6819043B68A4
:1023F800DB689AB23B685B690A4379694833DB005A
:102408000B445A603B689B69002B09D17B69D3F860
:102418000422FB68DB431A407B69C3F8042207E007
:102428007B69D3F80422FB681A437B69C3F804224A
:102438003B681B69002B09D17B69D3F81422FB6820
:10244800DB431A407B69C3F8142207E07B69D3F8A1
:102458001422FB681A437B69C3F814223B681B6A81
:10246800012B07D17B69D3F81C22FB681A437B69CF
:10247800C3F81C227B69D3F8003223F001027B6980
:10248800C3F80022002306E07B685B6A43F48022DD
:102498007B685A62012318461C37BD465DF8047BE9
:1024A800704780B584B000AF78607B6893F82030BF
:1024B800DBB2012B2ED17B68022283F820207B68B7
:1024C8001B681A687B681B6822F001021A60FEF715
:1024D8004DFDF86012E0FEF749FD0246FB68D31A8D
:1024E8000A2B0BD97B685B6A43F400327B685A621B
:1024F8007B68052283F82020012312E07B681B6893
:102508005B6803F00103002BE5D17B6800225A6267
:10251800002306E07B685B6A43F400227B685A620A
:10252800012318461037BD4680BD80B489B000AF7E
:10253800F860B9607A603B60FB6893F82030FB77FD
:10254800FB681B689B68BB61FB7F012B03D0FB7F8B
:10255800022B40F0AD80BB6903F08063002B0AD1E9
:10256800BB6903F00063002B05D1BB6903F08053FE
:10257800002B00F09580BB691B0E03F003037B6101
:1025880001227B699A403B681A60BB689B68002BF4
:102598000DD1BB681B685A05BB68DB68F968096818
:1025A8001A437B6918331B010B441A600FE0BB68A0
:1025B8005B68DA00BB689B681A43BB68DB68F9682C
:1025C80009681A437B6918331B010B441A60FB68BE
:1025D8001968BB681A697B6918331B010B440433FB
:1025E8001A60BB681B7D012B11D1FB681A687B69D7
:1025F80018331B01134404331B68FA68116843F449
:1026080080727B6918331B010B4404331A607B68A2
:1026180007331B781A067B6806331B781B041A439A
:102628007B6805331B781B0213437A6804321278DF
:102638001046FA68116843EA00027B691B010B44E3
:1026480003F5C6731A607B6803331B781A067B6828
:1026580002331B781B041A437B6801331B781B0267
:1026680013437A6812781046FA68116843EA000240
:102678007B691B010B4403F5C4731A60FB681A6875
:102688007B6918331B0113441B68FA68116843F00F
:1026980001027B6918331B010B441A6000230EE00A
:1026A800FB685B6A43F40012FB685A62012306E088
:1026B800FB685B6A43F48022FB685A620123184670
:1026C8002437BD465DF8047B704780B487B000AFFF
:1026D800F860B9607A603B60FB6893F82030FB755E
:1026E800FB7D012B03D0FB7D022B40F00381BB68EF
:1026F800002B0ED1FB681B68DB6803F00303002B7B
:1027080016D1FB685B6A43F40012FB685A62012326
:10271800F7E0FB681B681B6903F00303002B07D174
:10272800FB685B6A43F40012FB685A620123E8E025
:10273800FB681A68BB681B331B0113441B6803F052
:1027480004027B689A607B689B68002B0CD1FB684D
:102758001A68BB681B331B0113441B685B0DC3F36A
:102768000A027B681A600BE0FB681A68BB681B33B7
:102778001B0113441B68DB0823F060427B685A6026
:10278800FB681A68BB681B331B0113441B6803F002
:1027980002027B68DA60FB681A68BB681B331B019E
:1027A800134404331B6803F00803002B03D07B6831
:1027B80008221A610BE0FB681A68BB681B331B010F
:1027C800134404331B6803F00F027B681A61FB682B
:1027D8001A68BB681B331B01134404331B681B0AAC
:1027E800DAB27B689A61FB681A68BB681B331B0105
:1027F800134404331B681B0C9AB27B685A61FB684C
:102808001A68BB681B01134403F5DC731B68DAB252
:102818003B681A70FB681A68BB681B01134403F510
:10282800DC731B681A0A3B680133D2B21A70FB6862
:102838001A68BB681B01134403F5DC731B681A0C88
:102848003B680233D2B21A70FB681A68BB681B0176
:10285800134403F5DC731B681A0E3B680333D2B2CA
:102868001A70FB681A68BB681B01134403F5DE7312
:102878001A683B680433D2B21A70FB681A68BB68DE
:102888001B01134403F5DE731B681A0A3B68053302
:10289800D2B21A70FB681A68BB681B01134403F5AF
:1028A800DE731B681A0C3B680633D2B21A70FB68D9
:1028B8001A68BB681B01134403F5DE731B681A0E04
:1028C8003B680733D2B21A70BB68002B08D1FB688B
:1028D8001B68DA68FB681B6842F02002DA6007E0D0
:1028E800FB681B681A69FB681B6842F020021A61C2
:1028F800002306E0FB685B6A43F48022FB685A62A7
:10290800012318461C37BD465DF8047B704780B428
:1029180085B000AF786039607B6893F82030FB732E
:10292800FB7B012B02D0FB7B022B09D17B681B6848
:1029380059697B681B683A680A435A61002306E0B4
:102948007B685B6A43F480227B685A6201231846DD
:102958001437BD465DF8047B704780B58AB000AF78
:10296800786000237B627B681B685B693B627B68DD
:102978001B685B68FB617B681B689B68BB617B6845
:102988001B68DB687B617B681B681B693B617B6834
:102998001B689B69FB603B6A03F00103002B7CD03A
:1029A800BB6903F00103002B23D07B681B6801225D
:1029B8009A60BB6903F00203002B03D0786800F02B
:1029C80083F916E0BB6903F00403002B04D07B6A8B
:1029D80043F400637B620CE0BB6903F00803002B3F
:1029E80004D07B6A43F480537B6202E0786800F08D
:1029F80089F9BB6903F48073002B24D07B681B68BA
:102A08004FF480729A60BB6903F40073002B03D003
:102A1800786800F063F916E0BB6903F48063002B63
:102A280004D07B6A43F400537B620CE0BB6903F477
:102A38000063002B04D07B6A43F480437B6202E08E
:102A4800786800F069F9BB6903F48033002B24D05F
:102A58007B681B684FF480329A60BB6903F40033CB
:102A6800002B03D0786800F043F916E0BB6903F443
:102A78008023002B04D07B6A43F400437B620CE084
:102A8800BB6903F40023002B04D07B6A43F4803332
:102A98007B6202E0786800F049F93B6A03F00803BA
:102AA800002B0CD07B6903F01003002B07D07B6A46
:102AB80043F400737B627B681B681022DA603B6A10
:102AC80003F00403002B0BD07B6903F00803002BF1
:102AD80006D07B681B680822DA60786800F03AF94B
:102AE8003B6A03F00203002B09D07B681B68DB6894
:102AF80003F00303002B02D0786800F021F93B6A49
:102B080003F04003002B0CD03B6903F01003002BAB
:102B180007D07B6A43F480637B627B681B68102262
:102B28001A613B6A03F02003002B0BD03B6903F0CA
:102B38000803002B06D07B681B6808221A61786896
:102B480000F01CF93B6A03F01003002B09D07B68E6
:102B58001B681B6903F00303002B02D0786800F0A0
:102B680003F93B6A03F40033002B0BD0FB6903F035
:102B78001003002B06D07B681B6810225A60786807
:102B880000F006F93B6A03F48033002B0BD0FB6995
:102B980003F00803002B06D07B681B6808225A60E4
:102BA800786800F0FFF83B6A03F40043002B7BD001
:102BB800FB6903F00403002B72D03B6A03F48073B3
:102BC800002B08D0FB6803F00103002B03D07B6ABD
:102BD80043F001037B623B6A03F40073002B08D0C7
:102BE800FB6803F00203002B03D07B6A43F0020367
:102BF8007B623B6A03F48063002B08D0FB6803F018
:102C08000403002B03D07B6A43F004037B623B6A16
:102C180003F40063002B43D0FB6803F07003002B20
:102C28003ED0FB6803F07003602B2BD0602B2ED8AE
:102C3800502B22D0502B2AD8402B19D0402B26D8E5
:102C4800302B10D0302B22D8102B02D0202B05D0BF
:102C58001DE07B6A43F008037B6219E07B6A43F05E
:102C680010037B6214E07B6A43F020037B620FE071
:102C78007B6A43F040037B620AE07B6A43F080038F
:102C88007B6205E07B6A43F480737B6200E000BFEF
:102C98007B681B689A697B681B6822F070029A61DE
:102CA8007B681B6804225A607B6A002B08D07B680B
:102CB8005A6A7B6A1A437B685A62786800F07CF823
:102CC80000BF2837BD4680BD80B483B000AF7860B0
:102CD80000BF0C37BD465DF8047B704780B483B0F5
:102CE80000AF786000BF0C37BD465DF8047B7047C5
:102CF80080B483B000AF786000BF0C37BD465DF884
:102D0800047B704780B483B000AF786000BF0C3795
:102D1800BD465DF8047B704780B483B000AF78602F
:102D280000BF0C37BD465DF8047B704780B483B0A4
:102D380000AF786000BF0C37BD465DF8047B704774
:102D480080B483B000AF786000BF0C37BD465DF833
:102D5800047B704780B483B000AF786000BF0C3745
:102D6800BD465DF8047B704780B483B000AF7860DF
:102D780000BF0C37BD465DF8047B704780B483B054
:102D880000AF786000BF0C37BD465DF8047B704724
:102D980080B483B000AF786000BF0C37BD465DF8E3
:102DA800047B704780B483B000AF786000BF0C37F5
:102DB800BD465DF8047B704780B483B000AF78608F
:102DC80000BF0C37BD465DF8047B704780B485B002
:102DD80000AF78607B6803F00703FB600C4BDB688F
:102DE800BB60BA684FF6FF031340BB60FB681A026A
:102DF800BB68134343F0BF6343F40033BB60044A2A
:102E0800BB68D36000BF1437BD465DF8047B7047CC
:102E180000ED00E080B400AF044BDB681B0A03F050
:102E280007031846BD465DF8047B704700ED00E0D7
:102E380080B483B000AF0346FB7197F90730002BCD
:102E48000BDBFB7903F01F02074997F907305B0991
:102E5800012000FA02F241F8232000BF0C37BD46DA
:102E68005DF8047B704700BF00E100E080B483B0E8
:102E780000AF03463960FB7197F90730002B0ADB76
:102E88003B68DAB20C4997F907301201D2B20B4409
:102E980083F800230AE03B68DAB20849FB7903F0BB
:102EA8000F03043B1201D2B20B441A7600BF0C3751
:102EB800BD465DF8047B704700E100E000ED00E0EE
:102EC80080B489B000AFF860B9607A60FB6803F03D
:102ED8000703FB61FB69C3F10703042B28BF042325
:102EE800BB61FB690433062B02D9FB69033B00E095
:102EF80000237B614FF0FF32BB6902FA03F3DA4328
:102F0800BB681A407B699A404FF0FF317B6901FA30
:102F180003F3D9437B680B40134318462437BD4657
:102F28005DF8047B7047000080B582B000AF786020
:102F38007B68013BB3F1807F01D301230FE00A4A8C
:102F48007B68013B53600F214FF0FF30FFF78EFF86
:102F5800054B00229A60044B07221A60002318468A
:102F68000837BD4680BD00BF10E000E080B582B0E4
:102F780000AF78607868FFF729FF00BF0837BD46C3
:102F880080BD80B586B000AF0346B9607A60FB7338
:102F980000237B61FFF73EFF78617A68B96878693A
:102FA800FFF78EFF024697F90F3011461846FFF7D4
:102FB8005DFF00BF1837BD4680BD80B582B000AF49
:102FC8000346FB7197F907301846FFF731FF00BF3A
:102FD8000837BD4680BD80B582B000AF786078689C
:102FE800FFF7A2FF034618460837BD4680BD00001C
:102FF80080B487B000AF7860396000237B6154E10A
:103008003B681A6801217B6901FA03F31340FB60EE
:10301800FB68002B00F046813B685B6803F0030304
:10302800012B05D03B685B6803F00303022B30D10A
:103038007B689B683B617B695B00032202FA03F3B0
:10304800DB433A6913403B613B68DA687B695B00A4
:1030580002FA03F33A6913433B617B683A699A6061
:103068007B685B683B6101227B6902FA03F3DB43FF
:103078003A6913403B613B685B681B0903F0010236
:103088007B6902FA03F33A6913433B617B683A6947
:103098005A603B685B6803F00303032B17D07B6817
:1030A800DB683B617B695B00032202FA03F3DB43C5
:1030B8003A6913403B613B689A687B695B0002FA96
:1030C80003F33A6913433B617B683A69DA603B680A
:1030D8005B6803F00303022B23D17B69DA087B6862
:1030E800083253F822303B617B6903F007039B00E9
:1030F8000F2202FA03F3DB433A6913403B613B6852
:103108001A697B6903F007039B0002FA03F33A6923
:1031180013433B617B69DA087B680832396943F8F5
:1031280022107B681B683B617B695B00032202FA03
:1031380003F3DB433A6913403B613B685B6803F088
:1031480003027B695B0002FA03F33A6913433B61AC
:103158007B683A691A603B685B6803F44033002B6C
:1031680000F0A080584B9B69574A43F001039361D4
:10317800554B9B6903F00103BB60BB68534A7B69ED
:103188009B08023352F823303B617B6903F0030349
:103198009B000F2202FA03F3DB433A6913403B61B9
:1031A8007B68B3F1904F19D07B68494A934213D09A
:1031B8007B68484A93420DD07B68474A934207D0C0
:1031C8007B68464A934201D1042308E0052306E0C0
:1031D800032304E0022302E0012300E000237A69CC
:1031E80002F00302920093403A6913433B61374966
:1031F8007B699B0802333A6941F82320384B9B6866
:103208003B61FB68DB433A6913403B613B685B68A1
:1032180003F48013002B03D03A69FB6813433B6126
:103228002F4A3B6993602E4BDB683B61FB68DB43AD
:103238003A6913403B613B685B6803F40013002B59
:1032480003D03A69FB6813433B61254A3B69D36065
:10325800234B5B683B61FB68DB433A6913403B6186
:103268003B685B6803F40033002B03D03A69FB68C2
:1032780013433B611A4A3B695360194B1B683B6116
:10328800FB68DB433A6913403B613B685B6803F4C6
:103298008033002B03D03A69FB6813433B61104A23
:1032A8003B6913607B6901337B613B681A687B6902
:1032B80022FA03F3002B7FF4A3AE00BF00BF1C3734
:1032C800BD465DF8047B70470010024000000140D5
:1032D8000004004800080048000C0048001000489E
:1032E8000004014080B485B000AF78600B467B8055
:1032F8007B681A697B881340002B02D00123FB737B
:1033080001E00023FB73FB7B18461437BD465DF8CC
:10331800047B704780B483B000AF78600B467B8035
:1033280013467B707B78002B03D07A887B689A6180
:1033380002E07A887B689A6200BF0C37BD465DF868
:10334800047B704780B485B000AF78600B467B8003
:103358007B685B69FB607A88FB6813401A04FB682A
:10336800D9437B880B401A437B689A6100BF1437A6
:10337800BD465DF8047B704780B5ADF5007D00AFB4
:1033880007F50073A3F5FE73186007F50073A3F53E
:10339800FE731B68002B02D1012301F023B807F547
:1033A8000073A3F5FE731B681B6803F00103002B71
:1033B80000F07D81BC4B5B6803F00C03042B0CD040
:1033C800B94B5B6803F00C03082B5CD1B64B5B6808
:1033D80003F48033B3F5803F55D14FF40033C7F879
:1033E800F031D7F8F03193FAA3F3C7F8EC31D7F8F6
:1033F800EC31B3FA83F3DBB25B09DBB243F00103D0
:10340800DBB2012B02D1A84B1B6815E04FF4003347
:10341800C7F8E831D7F8E83193FAA3F3C7F8E431ED
:103428004FF40033C7F8E031D7F8E03193FAA3F34B
:10343800C7F8DC319C4B5B6A4FF40032C7F8D821DF
:10344800D7F8D82192FAA2F2C7F8D421D7F8D42114
:10345800B2FA82F2D2B242F02002D2B202F01F02D5
:10346800012101FA02F21340002B00F01F8107F539
:103478000073A3F5FE731B685B68002B40F0168190
:10348800012300F0AFBF07F50073A3F5FE731B68B7
:103498005B68B3F5803F06D1834B1B68824A43F4CF
:1034A8008033136036E007F50073A3F5FE731B68DD
:1034B8005B68002B0CD17C4B1B687B4A23F4803360
:1034C8001360794B1B68784A23F48023136021E04A
:1034D80007F50073A3F5FE731B685B68B3F5A02FAF
:1034E8000CD1714B1B68704A43F4802313606E4BF8
:1034F8001B686D4A43F4803313600BE06A4B1B680A
:10350800694A23F480331360674B1B68664A23F4C7
:1035180080231360644BDB6A23F00F0207F5007306
:10352800A3F5FE731B689B685F491343CB6207F5DD
:103538000073A3F5FE731B685B68002B59D0FDF779
:1035480015FDC7F8F8010AE0FDF710FD0246D7F8A7
:10355800F831D31A642B02D9032300F043BF4FF488
:103568000033C7F8D031D7F8D03193FAA3F3C7F8AE
:10357800CC31D7F8CC31B3FA83F3DBB25B09DBB2D9
:1035880043F00103DBB2012B02D1474B1B6815E066
:103598004FF40033C7F8C831D7F8C83193FAA3F30A
:1035A800C7F8C4314FF40033C7F8C031D7F8C03179
:1035B80093FAA3F3C7F8BC313B4B5B6A4FF4003274
:1035C800C7F8B821D7F8B82192FAA2F2C7F8B421FF
:1035D800D7F8B421B2FA82F2D2B242F02002D2B2C3
:1035E80002F01F02012101FA02F21340002BABD0B6
:1035F8005DE0FDF7BBFCC7F8F8010AE0FDF7B6FC93
:103608000246D7F8F831D31A642B02D9032300F005
:10361800E9BE4FF40033C7F8B031D7F8B03193FAA8
:10362800A3F3C7F8AC31D7F8AC31B3FA83F3DBB204
:103638005B09DBB243F00103DBB2012B02D11A4B69
:103648001B6815E04FF40033C7F8A831D7F8A83144
:1036580093FAA3F3C7F8A4314FF40033C7F8A031A5
:10366800D7F8A03193FAA3F3C7F89C310E4B5B6AE5
:103678004FF40032C7F89821D7F8982192FAA2F2AD
:10368800C7F89421D7F89421B2FA82F2D2B242F064
:103698002002D2B202F01F02012101FA02F2134005
:1036A800002BABD103E000BF0010024000BF07F5BC
:1036B8000073A3F5FE731B681B6803F00203002B5D
:1036C80000F07D81A64B5B6803F00C03002B0BD048
:1036D800A34B5B6803F00C03082B72D1A04B5B680B
:1036E80003F48033002B6CD10223C7F89031D7F84C
:1036F800903193FAA3F3C7F88C31D7F88C31B3FA29
:1037080083F3DBB25B09DBB243F00103DBB2012BCD
:1037180002D1934B1B6813E00223C7F88831D7F80E
:10372800883193FAA3F3C7F884310223C7F88031AC
:10373800D7F8803193FAA3F3C7F87C31884B5B6ADA
:103748000222C7F87821D7F8782192FAA2F2C7F8AE
:103758007421D7F87421B2FA82F2D2B242F0200270
:10376800D2B202F01F02012101FA02F21340002B2B
:103778000AD007F50073A3F5FE731B681B69012BBC
:1037880002D0012300F02EBE754B1B6823F0F8020F
:1037980007F50073A3F5FE731B685B69F821C7F88A
:1037A8007011D7F8701191FAA1F1C7F86C11D7F818
:1037B8006C11B1FA81F1C9B28B40694913430B60AE
:1037C800FDE007F50073A3F5FE731B681B69002B6A
:1037D80000F088800123C7F86831D7F8683193FA78
:1037E800A3F3C7F86431D7F86431B3FA83F3DBB2D3
:1037F80003F1845303F584139B001A4601231360D5
:10380800FDF7B4FBC7F8F8010AE0FDF7AFFB024685
:10381800D7F8F831D31A022B02D9032300F0E2BDFE
:103828000223C7F86031D7F8603193FAA3F3C7F8D9
:103838005C31D7F85C31B3FA83F3DBB25B09DBB2F6
:1038480043F00103DBB2012B02D1454B1B6813E0A7
:103858000223C7F85831D7F8583193FAA3F3C7F8B9
:1038680054310223C7F85031D7F8503193FAA3F3F3
:10387800C7F84C313A4B5B6A0222C7F84821D7F89F
:10388800482192FAA2F2C7F84421D7F84421B2FAA3
:1038980082F2D2B242F02002D2B202F01F0201211B
:1038A80001FA02F21340002BAFD02D4B1B6823F016
:1038B800F80207F50073A3F5FE731B685B69F8212E
:1038C800C7F84011D7F8401191FAA1F1C7F83C1197
:1038D800D7F83C11B1FA81F1C9B28B4020491343A2
:1038E8000B606CE00123C7F83831D7F8383193FA08
:1038F800A3F3C7F83431D7F83431B3FA83F3DBB222
:1039080003F1845303F584139B001A4600231360C4
:10391800FDF72CFBC7F8F8010AE0FDF727FB024684
:10392800D7F8F831D31A022B02D9032300F05ABD75
:103938000223C7F83031D7F8303193FAA3F3C7F828
:103948002C31D7F82C31B3FA83F3DBB25B09DBB245
:1039580043F00103DBB2012B04D1014B1B6815E0D6
:10396800001002400223C7F82831D7F8283193FA0B
:10397800A3F3C7F824310223C7F82031D7F8203140
:1039880093FAA3F3C7F81C31C84B5B6A0222C7F845
:103998001821D7F8182192FAA2F2C7F81421D7F8FB
:1039A8001421B2FA82F2D2B242F02002D2B202F06C
:1039B8001F02012101FA02F21340002BADD107F5D5
:1039C8000073A3F5FE731B681B6803F00803002B44
:1039D80000F0108107F50073A3F5FE731B689B695F
:1039E800002B79D00123C7F81031D7F8103193FA9A
:1039F800A3F3C7F80C31D7F80C31B3FA83F3DBB271
:103A08001A46AB4B13449B001A4601231360FDF77B
:103A1800ADFAC7F8F8010AE0FDF7A8FA0246D7F8A8
:103A2800F831D31A022B02D9032300F0DBBC02239E
:103A3800C7F80831D7F8083193FAA3F3C7F8043167
:103A480007F50073A3F5807302221A6007F5007367
:103A5800A3F580731B6893FAA3F207F50073A3F527
:103A680082731A6007F50073A3F5847302221A6043
:103A780007F50073A3F584731B6893FAA3F207F59F
:103A88000073A3F586731A60884B5A6A07F50073AA
:103A9800A3F588730221196007F50073A3F58873ED
:103AA8001B6893FAA3F107F50073A3F58A731960ED
:103AB80007F50073A3F58A731B68B3FA83F3DBB2C7
:103AC80043F06003DBB203F01F03012101FA03F3A3
:103AD8001340002BA0D08DE007F50073A3F58C737D
:103AE80001221A6007F50073A3F58C731B6893FA1B
:103AF800A3F207F50073A3F58E731A6007F5007338
:103B0800A3F58E731B68B3FA83F3DBB21A46684BCE
:103B180013449B001A4600231360FDF727FAC7F8E1
:103B2800F8010AE0FDF722FA0246D7F8F831D31A6D
:103B3800022B02D9032300F055BC07F50073A3F547
:103B4800907302221A6007F50073A3F590731B683F
:103B580093FAA3F207F50073A3F592731A6007F5B9
:103B68000073A3F5947302221A6007F50073A3F596
:103B780094731B6893FAA3F207F50073A3F5967381
:103B88001A6007F50073A3F5987302221A6007F507
:103B98000073A3F598731B6893FAA3F207F50073F3
:103BA800A3F59A731A60414B5A6A07F50073A3F597
:103BB8009C730221196007F50073A3F59C731B68B9
:103BC80093FAA3F107F50073A3F59E73196007F53F
:103BD8000073A3F59E731B68B3FA83F3DBB243F05B
:103BE8006003DBB203F01F03012101FA03F3134062
:103BF800002B97D107F50073A3F5FE731B681B68AC
:103C080003F00403002B00F0A181002387F8FF31A3
:103C1800264BDB6903F08053002B16D1234BDB695D
:103C2800224A43F08053D361204BDB6903F0805272
:103C380007F50073A3F5FC731A6007F50073A3F585
:103C4800FC731B68012387F8FF311A4B1B6803F4C8
:103C58008073002B1AD1174B1B68164A43F48073E4
:103C68001360FDF783F9C7F8F80109E0FDF77EF95D
:103C78000246D7F8F831D31A642B01D90323B1E3EC
:103C88000C4B1B6803F48073002BEFD007F500730F
:103C9800A3F5FE731B68DB68012B0DD1034B1B6A70
:103CA800024A43F0010313623CE000BF00100240E7
:103CB800208190100070004007F50073A3F5FE7393
:103CC8001B68DB68002B0CD1C14B1B6AC04A23F070
:103CD80001031362BE4B1B6ABD4A23F0040313623F
:103CE80020E007F50073A3F5FE731B68DB68052B5E
:103CF8000CD1B74B1B6AB64A43F004031362B44BAA
:103D08001B6AB34A43F0010313620BE0B04B1B6A12
:103D1800AF4A23F001031362AD4B1B6AAC4A23F090
:103D28000403136207F50073A3F5FE731B68DB68D1
:103D3800002B00F08180FDF719F9C7F8F8010BE0B6
:103D4800FDF714F90246D7F8F831D31A41F2883250
:103D5800934201D9032345E307F50073A3F5A07344
:103D680002221A6007F50073A3F5A0731B6893FA83
:103D7800A3F207F50073A3F5A2731A6007F50073A1
:103D8800A3F5A47302221A6007F50073A3F5A473C0
:103D98001B6893FAA3F207F50073A3F5A6731A60DC
:103DA80007F50073A3F5A6731B68B3FA83F3DBB2B8
:103DB8005B09DBB243F00203DBB2022B02D1844B76
:103DC8001B6A13E007F50073A3F5A87302221A60B3
:103DD80007F50073A3F5A8731B6893FAA3F207F518
:103DE8000073A3F5AA731A60794B5B6A07F5007232
:103DF800A2F5AC720221116007F50072A2F5AC724F
:103E0800126892FAA2F107F50072A2F5AE7211607B
:103E180007F50072A2F5AE721268B2FA82F2D2B257
:103E280042F04002D2B202F01F02012101FA02F26E
:103E38001340002B84D07FE0FDF798F8C7F8F8010D
:103E48000BE0FDF793F80246D7F8F831D31A41F2A0
:103E58008832934201D90323C4E207F50073A3F51E
:103E6800B07302221A6007F50073A3F5B0731B68DC
:103E780093FAA3F207F50073A3F5B2731A6007F576
:103E88000073A3F5B47302221A6007F50073A3F553
:103E9800B4731B6893FAA3F207F50073A3F5B6731E
:103EA8001A6007F50073A3F5B6731B68B3FA83F3BA
:103EB800DBB25B09DBB243F00203DBB2022B02D1B7
:103EC800434B1B6A13E007F50073A3F5B87302228E
:103ED8001A6007F50073A3F5B8731B6893FAA3F289
:103EE80007F50073A3F5BA731A60394B5B6A07F5D7
:103EF8000072A2F5BC720221116007F50072A2F5EA
:103F0800BC72126892FAA2F107F50072A2F5BE72AD
:103F1800116007F50072A2F5BE721268B2FA82F259
:103F2800D2B242F04002D2B202F01F02012101FADD
:103F380002F21340002B84D197F8FF31012B05D1F1
:103F4800234BDB69224A23F08053D36107F50073C2
:103F5800A3F5FE731B68DB69002B00F042821C4B43
:103F68005B6803F00C03082B00F0138207F500735D
:103F7800A3F5FE731B68DB69022B40F0628107F52D
:103F88000073A3F5C0734FF080721A6007F50073D1
:103F9800A3F5C0731B6893FAA3F207F50073A3F5A2
:103FA800C2731A6007F50073A3F5C2731B68B3FAEE
:103FB80083F3DBB203F1845303F584139B001A46A1
:103FC80000231360FCF7D2FFC7F8F8010CE000BF2C
:103FD80000100240FCF7CAFF0246D7F8F831D31A9E
:103FE800022B01D90323FDE107F50073A3F5C47380
:103FF8004FF000721A6007F50073A3F5C4731B68CD
:1040080093FAA3F207F50073A3F5C6731A6007F5D0
:104018000073A3F5C6731B68B3FA83F3DBB25B09BD
:10402800DBB243F00103DBB2012B02D1B04B1B68BA
:1040380027E007F50073A3F5C8734FF000721A6004
:1040480007F50073A3F5C8731B6893FAA3F207F585
:104058000073A3F5CA731A6007F50073A3F5CC7350
:104068004FF000721A6007F50073A3F5CC731B6854
:1040780093FAA3F207F50073A3F5CE731A609C4B6D
:104088005B6A07F50072A2F5D0724FF000711160FB
:1040980007F50072A2F5D072126892FAA2F107F53C
:1040A8000072A2F5D272116007F50072A2F5D27201
:1040B8001268B2FA82F2D2B242F02002D2B202F010
:1040C8001F02012101FA02F21340002B82D1884B12
:1040D8005B6823F4741207F50073A3F5FE731B687D
:1040E800596A07F50073A3F5FE731B681B6A0B4337
:1040F8007F4913434B6007F50073A3F5D4734FF062
:1041080080721A6007F50073A3F5D4731B6893FADD
:10411800A3F207F50073A3F5D6731A6007F50073C9
:10412800A3F5D6731B68B3FA83F3DBB203F18453A8
:1041380003F584139B001A4601231360FCF716FF4E
:10414800C7F8F80109E0FCF711FF0246D7F8F83183
:10415800D31A022B01D9032344E107F50073A3F511
:10416800D8734FF000721A6007F50073A3F5D8737F
:104178001B6893FAA3F207F50073A3F5DA731A60C4
:1041880007F50073A3F5DA731B68B3FA83F3DBB2A0
:104198005B09DBB243F00103DBB2012B02D1544BC4
:1041A8001B6827E007F50073A3F5DC734FF0007276
:1041B8001A6007F50073A3F5DC731B6893FAA3F282
:1041C80007F50073A3F5DE731A6007F50073A3F50E
:1041D800E0734FF000721A6007F50073A3F5E073FF
:1041E8001B6893FAA3F207F50073A3F5E2731A604C
:1041F8003F4B5B6A07F50072A2F5E4724FF000715D
:10420800116007F50072A2F5E472126892FAA2F141
:1042180007F50072A2F5E672116007F50072A2F5C3
:10422800E6721268B2FA82F2D2B242F02002D2B238
:1042380002F01F02012101FA02F21340002B82D082
:10424800CFE007F50073A3F5E8734FF080721A60AA
:1042580007F50073A3F5E8731B6893FAA3F207F553
:104268000073A3F5EA731A6007F50073A3F5EA7300
:104278001B68B3FA83F3DBB203F1845303F58413A9
:104288009B001A4600231360FCF770FEC7F8F8017C
:1042980009E0FCF76BFE0246D7F8F831D31A022B77
:1042A80001D903239EE007F50073A3F5EC734FF0E3
:1042B80000721A6007F50073A3F5EC731B6893FA94
:1042C800A3F207F50073A3F5EE731A6007F5007300
:1042D800A3F5EE731B68B3FA83F3DBB25B09DBB2B9
:1042E80043F00103DBB2012B04D1014B1B6829E029
:1042F8000010024007F50073A3F5F0734FF0007249
:104308001A6007F50073A3F5F0731B6893FAA3F21C
:1043180007F50073A3F5F2731A6007F50073A3F5A8
:10432800F4734FF000721A6007F50073A3F5F47385
:104338001B6893FAA3F207F50073A3F5F6731A60E6
:104348002B4B5B6A07F50072A2F5F8724FF000710B
:10435800116007F50072A2F5F872126892FAA2F1DC
:1043680007F50072A2F5FA72116007F50072A2F55E
:10437800FA721268B2FA82F2D2B242F02002D2B2D3
:1043880002F01F02012101FA02F21340002B80D132
:1043980027E007F50073A3F5FE731B68DB69012BA3
:1043A80001D101231EE0124B5B68C7F8F431D7F83E
:1043B800F43103F4803207F50073A3F5FE731B682C
:1043C8001B6A9A420BD1D7F8F43103F4701207F53F
:1043D8000073A3F5FE731B685B6A9A4201D0012340
:1043E80000E00023184607F50077BD4680BD00BFF2
:1043F8000010024080B59EB000AF7860396000239D
:104408007B677B68002B01D1012362E1904B1B681D
:1044180003F007033A689A4210D98D4B1B6823F0C2
:1044280007028B493B6813430B60894B1B6803F0F9
:1044380007033A689A4201D001234AE17B681B6866
:1044480003F00203002B08D0824B5B6823F0F002D4
:104458007B689B687F4913434B607B681B6803F04C
:104468000103002B00F0DC807B685B68012B3CD1EA
:104478004FF400333B673B6F93FAA3F3FB66FB6E85
:10448800B3FA83F3DBB25B09DBB243F00103DBB2BF
:10449800012B02D16F4B1B680FE04FF40033BB6652
:1044A800BB6E93FAA3F37B664FF400333B663B6E17
:1044B80093FAA3F3FB65674B5B6A4FF40032BA6566
:1044C800BA6D92FAA2F27A657A6DB2FA82F2D2B233
:1044D80042F02002D2B202F01F02012101FA02F2D8
:1044E8001340002B7BD10123F3E07B685B68022B30
:1044F8003CD14FF000733B653B6D93FAA3F3FB642B
:10450800FB6CB3FA83F3DBB25B09DBB243F0010364
:10451800DBB2012B02D14F4B1B680FE04FF0007349
:10452800BB64BB6C93FAA3F37B644FF000733B64EA
:104538003B6C93FAA3F3FB63464B5B6A4FF0007244
:10454800BA63BA6B92FAA2F27A637A6BB2FA82F21F
:10455800D2B242F02002D2B202F01F02012101FAC7
:1045680002F21340002B3AD10123B2E002233B634D
:104578003B6B93FAA3F3FB62FB6AB3FA83F3DBB2F8
:104588005B09DBB243F00103DBB2012B02D1314BF3
:104598001B680DE00223BB62BB6A93FAA3F37B623C
:1045A80002233B623B6A93FAA3F3FB61294B5B6AE4
:1045B8000222BA61BA6992FAA2F27A617A69B2FA07
:1045C80082F2D2B242F02002D2B202F01F020121DE
:1045D80001FA02F21340002B01D1012379E01D4BAF
:1045E8005B6823F003027B685B681A4913434B60DE
:1045F800FCF7BCFC78670AE0FCF7B8FC02467B6F66
:10460800D31A41F28832934201D9032361E0114B56
:104618005B6803F00C027B685B689B009A42EBD1F5
:104628000B4B1B6803F007033A689A4214D2084BF5
:104638001B6823F0070206493B6813430B60044BD1
:104648001B6803F007033A689A4205D0012340E04B
:1046580000200240001002407B681B6803F004033E
:10466800002B08D01D4B5B6823F4E0627B68DB6895
:104678001A4913434B607B681B6803F00803002B3F
:1046880009D0164B5B6823F460527B681B69DB001A
:10469800124913434B6000F029F801460F4B5B6841
:1046A80003F0F003F0223A613A6992FAA2F2FA6052
:1046B800FA68B2FA82F2D2B2D340094AD35C21FA3C
:1046C80003F3084A1360084B1B681846FCF70AFCFA
:1046D800002318467837BD4680BD00BF0010024051
:1046E800985400080C0000201000002080B487B007
:1046F80000AF0023FB600023BB6000237B61002325
:104708007B6000233B611E4B5B68FB60FB6803F02A
:104718000C03042B02D0082B03D026E0194B3B6175
:1047280026E0FB689B0C03F00F03174AD35C7B6001
:10473800134BDB6A03F00F03144AD35CBB60FB68BE
:1047480003F48033002B08D00E4ABB68B2FBF3F2A7
:104758007B6802FB03F37B6104E07B680C4A02FB85
:1047680003F37B617B693B6102E00A4B3B6100BF5D
:104778003B6918461C37BD465DF8047B704700BF8F
:10478800001002400024F400A8540008B85400089F
:1047980000093D0000127A0080B592B000AF786041
:1047A80000233B640023FB63002387F847307B68C2
:1047B8001B6803F48033002B00F0D4804E4BDB6978
:1047C80003F08053002B0ED14B4BDB694A4A43F070
:1047D8008053D361484BDB6903F08053BB60BB68EF
:1047E800012387F84730454B1B6803F48073002B7F
:1047F80018D1424B1B68414A43F480731360FCF79D
:10480800B5FB386408E0FCF7B1FB02463B6CD31AF1
:10481800642B01D9032369E1384B1B6803F48073C7
:10482800002BF0D0344B1B6A03F44073FB63FB6B23
:10483800002B00F084807B685B6803F44073FA6B9C
:104848009A427CD02C4B1B6A23F44073FB634FF4D1
:1048580080333B633B6B93FAA3F3FB62FB6AB3FAC7
:1048680083F3DBB21A46264B13449B001A460123F6
:1048780013604FF48033BB63BB6B93FAA3F37B6382
:104888007B6BB3FA83F3DBB21A461D4B13449B00D0
:104898001A4600231360184AFB6B1362FB6B03F084
:1048A8000103002B4BD0FCF761FB38640AE0FCF7EE
:1048B8005DFB02463B6CD31A41F28832934201D920
:1048C800032313E10223BB62BB6A93FAA3F37B625F
:1048D80002233B623B6A93FAA3F3FB61FB69B3FAD9
:1048E80083F3DBB25B09DBB243F00203DBB2022BDA
:1048F80008D1014B1B6A0DE0001002400070004017
:10490800008190100223BB61BB6993FAA3F37B611A
:10491800784B5B6A02223A613A6992FAA2F2FA602B
:10492800FA68B2FA82F2D2B242F04002D2B202F08F
:104938001F02012101FA02F21340002BB7D06D4B80
:104948001B6A23F440727B685B686A4913430B62F5
:1049580097F84730012B05D1664BDB69654A23F090
:104968008053D3617B681B6803F00103002B08D0D8
:10497800604B1B6B23F003027B689B685D49134304
:104988000B637B681B6803F00203002B08D0594BAC
:104998001B6B23F440327B68DB68564913430B6377
:1049A8007B681B6803F00403002B08D0514B1B6B7A
:1049B80023F440227B681B694E4913430B637B68D1
:1049C8001B6803F02003002B08D04A4B1B6B23F015
:1049D80010027B68DB69474913430B637B681B68DC
:1049E80003F40033002B08D0424B5B6823F48002A9
:1049F8007B689B6B3F4913434B607B681B6803F0E4
:104A08004003002B08D03B4B1B6B23F020027B6834
:104A18001B6A384913430B637B681B6803F0080360
:104A2800002B08D0334B1B6B23F440127B685B6967
:104A3800304913430B637B681B6803F01003002B9A
:104A480008D02C4B1B6B23F440027B689B692949D7
:104A580013430B637B681B6803F40073002B08D0B7
:104A6800244B5B6823F400027B68DB6A214913430B
:104A78004B607B681B6803F08003002B08D01D4B3C
:104A8800DB6A23F4F8727B685B6A1A491343CB62CA
:104A98007B681B6803F48073002B08D0154BDB6A16
:104AA80023F478527B689B6A12491343CB627B6874
:104AB8001B6803F48053002B08D00E4B1B6B23F4A8
:104AC80080727B681B6B0B4913430B637B681B6805
:104AD80003F40053002B08D0064B1B6B23F4007221
:104AE8007B685B6B034913430B6300231846483705
:104AF800BD4680BD0010024080B582B000AF78602E
:104B08007B68002B01D1012349E07B6893F83D3095
:104B1800DBB2002B06D17B68002283F83C20786842
:104B2800FCF742F87B68022283F83D207B681A680C
:104B38007B6804331946104600F09EFA7B68012210
:104B480083F848207B68012283F83E207B68012295
:104B580083F83F207B68012283F840207B6801228C
:104B680083F841207B68012283F842207B68012278
:104B780083F843207B68012283F844207B68012264
:104B880083F845207B68012283F846207B68012250
:104B980083F847207B68012283F83D2000231846CC
:104BA8000837BD4680BD000080B485B000AF78608E
:104BB8007B6893F83D30DBB2012B01D001234AE03A
:104BC8007B68022283F83D207B681B68DA687B6873
:104BD8001B6842F00102DA607B681B68214A934235
:104BE80018D07B681B68B3F1804F13D07B681B68B3
:104BF8001D4A93420ED07B681B681C4A934209D019
:104C08007B681B681A4A934204D07B681B68194A60
:104C1800934215D17B681B689A68174B1340FB6059
:104C2800FB68062B15D0FB68B3F5803F11D07B6875
:104C38001B681A687B681B6842F001021A6008E06A
:104C48007B681B681A687B681B6842F001021A605F
:104C580000E000BF002318461437BD465DF8047B0A
:104C6800704700BF002C01400004004000080040CD
:104C780000340140004001400700010080B584B0C5
:104C880000AF78607B681B68DB68FB607B681B682B
:104C98001B69BB60BB6803F00203002B20D0FB68D4
:104CA80003F00203002B1BD07B681B686FF0020225
:104CB8001A617B6801221A777B681B689B6903F07D
:104CC8000303002B03D0786800F0B7F905E0786893
:104CD80000F0A9F9786800F0BAF97B6800221A7721
:104CE800BB6803F00403002B20D0FB6803F0040327
:104CF800002B1BD07B681B686FF004021A617B686D
:104D080002221A777B681B689B6903F44073002BA7
:104D180003D0786800F091F905E0786800F083F92D
:104D2800786800F094F97B6800221A77BB6803F072
:104D38000803002B20D0FB6803F00803002B1BD0CE
:104D48007B681B686FF008021A617B6804221A7777
:104D58007B681B68DB6903F00303002B03D07868CA
:104D680000F06BF905E0786800F05DF9786800F00C
:104D78006EF97B6800221A77BB6803F01003002BDA
:104D880020D0FB6803F01003002B1BD07B681B6846
:104D98006FF010021A617B6808221A777B681B681B
:104DA800DB6903F44073002B03D0786800F045F901
:104DB80005E0786800F037F9786800F048F97B6812
:104DC80000221A77BB6803F00103002B0CD0FB68A4
:104DD80003F00103002B07D07B681B686FF001020A
:104DE8001A61786800F015F9BB6803F08003002B9E
:104DF8000CD0FB6803F08003002B07D07B681B688E
:104E08006FF080021A61786800F0F6FABB6803F464
:104E18008073002B0CD0FB6803F08003002B07D0B5
:104E28007B681B686FF480721A61786800F0EEFA8C
:104E3800BB6803F04003002B0CD0FB6803F0400371
:104E4800002B07D07B681B686FF040021A617868F6
:104E580000F007F9BB6803F02003002B0CD0FB68B7
:104E680003F02003002B07D07B681B686FF020023B
:104E78001A61786800F0B6FA00BF1037BD4680BDE9
:104E880080B584B000AF786039600023FB737B681D
:104E980093F83C30012B01D10223B6E07B68012254
:104EA80083F83C207B68022283F83D207B681B68DE
:104EB8009B68BB60BB6823F4803323F07703BB6037
:104EC800BB6823F47F43BB607B681B68BA689A6041
:104ED8003B681B68B3F5005F3ED0B3F5005F00F296
:104EE8008780B3F5805F00F08680B3F5805F7FD858
:104EF800702B1AD0702B7BD8602B50D0602B77D8B2
:104F0800502B3CD0502B73D8402B58D0402B6FD807
:104F1800302B64D0302B6BD8202B60D0202B67D857
:104F2800002B5CD0102B5AD062E07B6818683B6875
:104F380099683B685A683B68DB6800F0B3F97B689E
:104F48001B689B68BB60BB6843F07703BB607B68EA
:104F58001B68BA689A604FE07B6818683B68996874
:104F68003B685A683B68DB6800F09CF97B681B6803
:104F78009A687B681B6842F480429A603CE07B68D0
:104F880018683B6859683B68DB681A4600F010F9F6
:104F98007B681B685021184600F069F92CE07B6893
:104FA80018683B6859683B68DB681A4600F02FF9B7
:104FB8007B681B686021184600F059F91CE07B6883
:104FC80018683B6859683B68DB681A4600F0F0F8D7
:104FD8007B681B684021184600F049F90CE07B68A3
:104FE8001A683B681B681946104600F040F903E050
:104FF8000123FB7300E000BF7B68012283F83D209A
:105008007B68002283F83C20FB7B18461037BD469E
:1050180080BD80B483B000AF786000BF0C37BD4658
:105028005DF8047B704780B483B000AF786000BF40
:105038000C37BD465DF8047B704780B483B000AF81
:10504800786000BF0C37BD465DF8047B704780B4BC
:1050580083B000AF786000BF0C37BD465DF8047BB5
:10506800704780B483B000AF786000BF0C37BD468E
:105078005DF8047B7047000080B485B000AF7860AD
:1050880039607B681B68FB607B68424A93420FD09B
:105098007B68B3F1804F0BD07B683F4A934207D0BF
:1050A8007B683E4A934203D07B683D4A934208D1CD
:1050B800FB6823F07003FB603B685B68FA68134386
:1050C800FB607B68334A93421BD07B68B3F1804F07
:1050D80017D07B68304A934213D07B682F4A93429B
:1050E8000FD07B682E4A93420BD07B682D4A93429F
:1050F80007D07B682C4A934203D07B682B4A9342A3
:1051080008D1FB6823F44073FB603B68DB68FA68EE
:105118001343FB60FB6823F080023B685B69134321
:10512800FB607B68FA681A603B689A687B68DA6299
:105138003B681A687B689A627B68164A93420FD06C
:105148007B68174A93420BD07B68164A934207D074
:105158007B68154A934203D07B68144A934203D173
:105168003B681A697B681A637B6801225A617B680D
:105178001B6903F00103012B05D17B681B6923F030
:1051880001027B681A6100BF1437BD465DF8047BD5
:10519800704700BF002C0140000400400008004098
:1051A80000340140004001400044014000480140F3
:1051B80080B487B000AFF860B9607A60FB681B6A9A
:1051C8007B61FB681B6A23F00102FB681A62FB68BB
:1051D8009B693B613B6923F0F0033B617B681B01E2
:1051E8003A6913433B617B6923F00A037B617A695F
:1051F800BB6813437B61FB683A699A61FB687A690B
:105208001A6200BF1C37BD465DF8047B704780B446
:1052180087B000AFF860B9607A60FB681B6A7B6191
:10522800FB681B6A23F01002FB681A62FB689B6923
:105238003B613B6923F470433B617B681B033A691C
:1052480013433B617B6923F0A0037B61BB681B01AF
:105258007A6913437B61FB683A699A61FB687A69EA
:105268001A6200BF1C37BD465DF8047B704780B4E6
:1052780085B000AF786039607B689B68FB60FB682D
:1052880023F07003FB603A68FB68134343F007039D
:10529800FB607B68FA689A6000BF1437BD465DF80A
:1052A800047B704780B487B000AFF860B9607A605B
:1052B8003B60FB689B687B617B6923F47F437B6170
:1052C8003B681A027B681A43BB6813437A69134325
:1052D8007B61FB687A699A6000BF1C37BD465DF840
:1052E800047B704780B485B000AF786039607B6814
:1052F80093F83C30012B01D1022363E07B68012243
:1053080083F83C207B68022283F83D207B681B6879
:105318005B68FB607B681B689B68BB607B681B687D
:105328002B4A934204D07B681B682A4A934208D1CF
:10533800FB6823F47003FB603B685B68FA681343FF
:10534800FB60FB6823F07003FB603B681B68FA682E
:105358001343FB607B681B68FA685A607B681B68AC
:105368001B4A934218D07B681B68B3F1804F13D057
:105378007B681B68184A93420ED07B681B68174AE3
:10538800934209D07B681B68124A934204D07B6819
:105398001B68134A93420CD1BB6823F08003BB609F
:1053A8003B689B68BA681343BB607B681B68BA6834
:1053B8009A607B68012283F83D207B68002283F88D
:1053C8003C20002318461437BD465DF8047B70471F
:1053D800002C014000340140000400400008004057
:1053E8000040014080B483B000AF786000BF0C3744
:1053F800BD465DF8047B704780B483B000AF786029
:1054080000BF0C37BD465DF8047B704780B483B09D
:1054180000AF786000BF0C37BD465DF8047B70476D
:1054280002440346934200D1704703F8011BF9E791
:1054380070B50D4D0D4C641BA4100026A64209D171
:105448000B4D0C4C00F018F8641BA4100026A64263
:1054580005D170BD55F8043B98470136EEE755F87D
:10546800043B98470136F2E7C8540008C8540008BE
:10547800C8540008CC540008F8B500BFF8BC08BCF4
:105488009E467047F8B500BFF8BC08BC9E467047FA
:1054980000000000000000000102030406070809DC
:1054A80002030405060708090A0B0C0D0E0F10105D
:1054B8000102030405060708090A0B0C0D0E0F105C
:0454C800AD0100082A
:0454CC00890100084A
:1054D00064000000640100206801002000127A00CE
:0854E0001000000001000000B3
:0400000508000E6D74
:00000001FF
